:10090F00535049204C6F6F706261636B2054657355
:10091F00740D0A0053656E64696E67203078413537
:10092F00202E2E2E20005265636569766564203077
:10093F0078000D0A003031323334353637383941CB
:06094F004243444546004E
:0F0A1C00EF1FAC0670011E4C6004000080F22238
:0F0A2B00438920758BFD758DFD759850D28E22F5
:080A46008F993099FDC299223D
:1009F7008B088A09890AAB08AA09A90A1208F660AE
:100A070013050AE50A7002050914F91208F6FF1220
:050A17000A4680E22206
:0209C9008F0895
:1009CB0078097C007D007BFF7A0979447E007F11DA
:1009DB001208D0E508C4540F2409F8E6FF120A46A2
:0C09EB00E508540F2409F8E6FF020A4654
:050A4E00D2A3C2A222A8
:02095500AD07EC
:10095700E4FBC2A3FAED30E703D38001C392A0ED15
:1009670025E0FDD2A27F057E00120A1CEB25E0FBE5
:1009770030A103430301C2A27F057E00120A1C0AAD
:07098700BA08D2D2A3AF03AE
:01098E002246
:10098F007EA5120A2B120A4E7BFF7A09790F1209E4
:10099F00F77BFF7A0979231209F77FA5120955AE64
:1009AF00077BFF7A0979351209F7AF061209C97B60
:0A09BF00FF7A0979411209F780FE62
:03000000020A3AB7
:0C0A3A00787FE4F6D8FD75811902098F61
:10080000E709F608DFFA8046E709F208DFFA803EDA
:1008100088828C83E709F0A3DFFA8032E309F608C7
:10082000DFFA8078E309F208DFFA807088828C832F
:10083000E309F0A3DFFA806489828A83E0A3F608E3
:10084000DFFA805889828A83E0A3F208DFFA804CBD
:1008500080D280FA80C680D4806980F28033801094
:1008600080A680EA809A80A880DA80E280CA8033FD
:1008700089828A83ECFAE493A3C8C582C8CCC58375
:10088000CCF0A3C8C582C8CCC583CCDFE9DEE78045
:100890000D89828A83E493A3F608DFF9ECFAA9F0C4
:1008A000EDFB2289828A83ECFAE0A3C8C582C8CC1A
:1008B000C583CCF0A3C8C582C8CCC583CCDFEADE33
:1008C000E880DB89828A83E493A3F208DFF980CC95
:1008D00088F0EF60010E4E60C388F0ED2402B4048E
:1008E0000050B9F582EB2402B4040050AF23234535
:0608F00082239008507302
:1008F600BB010689828A83E0225002E722BBFE0200
:09090600E32289828A83E4932232
:00000001FF
