:0D0949005365636F6E64733A20000D0A0061
:0808F500D2A0D2A17F057E0014
:0F08FD00EF1FAC0670011E4C6004000080F22259
:10090C001208F5C2A01208F9C2A17F057E000208E8
:01091C00FDDD
:0E093B00C2A01208F7D2A07F057E000208FDC0
:02084D00AD07F5
:10084F00E4FBED30E703D38001C392A01208F7C297
:10085F00A11208F9ED25E0FD0BBB08E61208F5C261
:08086F00A17F057E000208FDD7
:10087700E4FDD2A0FB1208F7ED25E0FD30A003430D
:100887000501C2A11208F90BBB08EA1208F5C2A1BB
:050897001208F9AF0595
:01089C002239
:0F091D00EFC4540F75F00AA4FEEF540F2EFF2203
:0F092C00438920758DFD758BFD759850D28E22F5
:080962008F993099FDC2992222
:10089D008B098A0A890BAB09AA0AA90B1208DC601D
:1008AD0013050BE50B7002050A14F91208DCFF1293
:0508BD00096280E22247
:1008C200AE07EE75F00A842430FF120962EE75F06D
:0A08D2000A84E5F02430FF020962F9
:100800007508FF12092C12090C7FD012084DE4FF65
:1008100012084D12090C7FD112084D120877AD074E
:1008200012093BED650860208D08AF0512091DAD6A
:10083000077BFF7A09794912089DAF051208C27B30
:0D084000FF7A09795312089D1208F980B95A
:030000000209569C
:0C095600787FE4F6D8FD75810B020800E4
:1008DC00BB010689828A83E0225002E722BBFE021A
:0908EC00E32289828A83E493224D
:00000001FF
