:10090F0057726F74652030780020746F2045455002
:10091F00524F4D20616464726573732030783030AC
:10092F0031300D0A00526561642020307800206656
:10093F00726F6D20454550524F4D20616464726552
:10094F007373203078303031300D0A00303132334C
:0D095F0034353637383941424344454600AF
:040A8F007F057E0061
:0F0A9300EF1FAC0670011E4C6004000080F222C1
:0F0AA200438920758BFD758DFD759850D28E227E
:080AC7008F993099FDC29922BC
:100A4A008B098A0A890BAB09AA0AA90B1208F66054
:100A5A0013050BE50B7002050A14F91208F6FF12CA
:050A6A000AC780E22232
:0209EE008F096F
:1009F000780A7C007D007BFF7A09795B7E007F119D
:100A00001208D0E509C4540F240AF8E6FF120AC7F9
:0C0A1000E509540F240AF8E6FF020AC7AB
:050ACF00D2A3C2A22227
:020A1C00AD0724
:100A1E00E4FBFAED30E704D2A08002C2A0ED25E09F
:100A2E00FDD2A2120A8FEB25E0FB30A10343030196
:0B0A3E00C2A2120A8F0ABA08DAAF0346
:010A4900228A
:0A0ABD00C2A37F06120A1CD2A32276
:0409B700AA06A905DE
:1009BB00EAF509EFF50A120ABDC2A37F02120A1C5F
:1009CB00AF09120A1CAF0A120A1CAF01120A1CD281
:1009DB00A3E4FBFA120A8F0BBB00010ABA05F5BBA5
:0209EB00DCF23C
:0109ED0022E7
:020A6F00AC06D3
:100A7100ECF509EFF9C2A37F03120A1CAF09120AB0
:0D0A81001CAF01120A1CE4FF120A1CD2A3D4
:010A8E002245
:10096C0075085A120AA2120ACFAD087F107E001227
:10097C0009B77BFF7A09790F120A4AAF081209EE00
:10098C007BFF7A097918120A4A7F107E00120A6FCF
:10099C00AE077BFF7A097934120A4AAF061209EEC8
:0B09AC007BFF7A09793D120A4A80FEA9
:03000000020AB140
:0C0AB100787FE4F6D8FD75811A02096C0C
:10080000E709F608DFFA8046E709F208DFFA803EDA
:1008100088828C83E709F0A3DFFA8032E309F608C7
:10082000DFFA8078E309F208DFFA807088828C832F
:10083000E309F0A3DFFA806489828A83E0A3F608E3
:10084000DFFA805889828A83E0A3F208DFFA804CBD
:1008500080D280FA80C680D4806980F28033801094
:1008600080A680EA809A80A880DA80E280CA8033FD
:1008700089828A83ECFAE493A3C8C582C8CCC58375
:10088000CCF0A3C8C582C8CCC583CCDFE9DEE78045
:100890000D89828A83E493A3F608DFF9ECFAA9F0C4
:1008A000EDFB2289828A83ECFAE0A3C8C582C8CC1A
:1008B000C583CCF0A3C8C582C8CCC583CCDFEADE33
:1008C000E880DB89828A83E493A3F208DFF980CC95
:1008D00088F0EF60010E4E60C388F0ED2402B4048E
:1008E0000050B9F582EB2402B4040050AF23234535
:0608F00082239008507302
:1008F600BB010689828A83E0225002E722BBFE0200
:09090600E32289828A83E4932232
:00000001FF
